:020000040800F2
:1000000000200020658B0008658800086F880008C4
:1000100000000000000000000000000000000000E0
:1000200000000000000000000000000075880008CB
:1000300000000000000000007F8800088988000898
:10004000B58B0008B58B0008B58B0008B58B000890
:10005000B58B0008B58B0008B58B0008B58B000880
:10006000B58B000899880008B58B0008B58B00088F
:10007000B58B0008B58B000800000000B58B0008A8
:1000800000000000B188000800000000000000002F
:10009000B58B000800000000B58B0008B58B000888
:1000A000B58B0008B58B0008B58B0008B58B000830
:1000B000B58B0008B58B000800000000B58B000868
:1000C00010B5064C2378002B07D1054B002B02D02E
:1000D000044800E000BF0123237010BDE8010020A8
:1000E00000000000B4BA0008044B10B5002B03D088
:1000F0000349044800E000BF10BDC04600000000F6
:10010000EC010020B4BA00080023C25C0133002ACD
:10011000FBD1581E7047000002B4714649084900DF
:10012000095C49008E4402BC7047C04603B4714666
:10013000490840004900095E49008E4403BC7047ED
:10014000002243088B4274D303098B425FD3030A16
:100150008B4244D3030B8B4228D3030C8B420DD329
:10016000FF22090212BA030C8B4202D312120902B7
:1001700065D0030B8B4219D300E0090AC30B8B42F5
:1001800001D3CB03C01A5241830B8B4201D38B03A3
:10019000C01A5241430B8B4201D34B03C01A524148
:1001A000030B8B4201D30B03C01A5241C30A8B428B
:1001B00001D3CB02C01A5241830A8B4201D38B0276
:1001C000C01A5241430A8B4201D34B02C01A52411A
:1001D000030A8B4201D30B02C01A5241CDD2C3098C
:1001E0008B4201D3CB01C01A524183098B4201D308
:1001F0008B01C01A524143098B4201D34B01C01AF3
:10020000524103098B4201D30B01C01A5241C3086A
:100210008B4201D3CB00C01A524183088B4201D3D9
:100220008B00C01A524143088B4201D34B00C01AC5
:100230005241411A00D20146524110467047FFE731
:1002400001B5002000F0F0F802BDC0460029F7D04B
:1002500076E7704703460B437FD4002243088B4266
:1002600074D303098B425FD3030A8B4244D3030B3D
:100270008B4228D3030C8B420DD3FF22090212BA02
:10028000030C8B4202D31212090265D0030B8B427E
:1002900019D300E0090AC30B8B4201D3CB03C01A68
:1002A0005241830B8B4201D38B03C01A5241430B43
:1002B0008B4201D34B03C01A5241030B8B4201D333
:1002C0000B03C01A5241C30A8B4201D3CB02C01A9E
:1002D0005241830A8B4201D38B02C01A5241430A16
:1002E0008B4201D34B02C01A5241030A8B4201D305
:1002F0000B02C01A5241CDD2C3098B4201D3CB01AC
:10030000C01A524183098B4201D38B01C01A52415A
:1003100043098B4201D34B01C01A524103098B425E
:1003200001D30B01C01A5241C3088B4201D3CB0049
:10033000C01A524183088B4201D38B00C01A52412C
:1003400043088B4201D34B00C01A5241411A00D2DC
:1003500001465241104670475DE0CA0F00D0494245
:10036000031000D34042534000229C4603098B42B5
:100370002DD3030A8B4212D3FC22890112BA030A3D
:100380008B420CD3890192118B4208D389019211BF
:100390008B4204D389013AD0921100E08909C30944
:1003A0008B4201D3CB01C01A524183098B4201D346
:1003B0008B01C01A524143098B4201D34B01C01A31
:1003C000524103098B4201D30B01C01A5241C308A9
:1003D0008B4201D3CB00C01A524183088B4201D318
:1003E0008B00C01A5241D9D243088B4201D34B0033
:1003F000C01A5241411A00D20146634652415B1075
:10040000104601D34042002B00D549427047634655
:100410005B1000D3404201B5002000F005F802BD9A
:100420000029F8D016E770477047C0468446101C74
:1004300062468C46191C634600E0C0461FB500F0BA
:1004400033FF002801D40021C8421FBD10B500F0C1
:100450007DFE4042013010BD10B500F025FF0028A0
:1004600001DB002010BD012010BDC04610B500F01A
:100470001BFF002801DD002010BD012010BDC0467B
:1004800010B500F09FFE002801DC002010BD012007
:1004900010BDC04610B500F095FE002801DA00201E
:1004A00010BD012010BDC046F0B54F46D6464646A9
:1004B0000D0001001800C0B517002B035A0A4B0F9E
:1004C0001343CA00914602036E004100520AEC0F2A
:1004D0007D0F1543760D490DC00F8246AC46FF00D7
:1004E000721A844200D198E0002A00DC81E00029E1
:1004F00000D1B6E0C9498E4200D172E180212800C6
:10050000090408438446382A00DD5EE11F2A00DD25
:10051000EEE1202039006546801A8740D1408540B1
:100520000D4339004F1EB9416746D7402943DB1BB5
:100530004A46551AA945894149425B1A984643469D
:100540001B0200D4CCE043465B025B0A984643465C
:10055000002B00D12CE1404601F0BEFD010008391E
:10056000202228004346521A8B40D0408D4003433E
:100570008E4200DD17E18E1B721C1F2A00DDA7E1F1
:10058000202118002E00891A8D408840D640D34083
:10059000691E8D4130439846002605436B0709D0FC
:1005A0000F232B40042B05D02B1DAB42AD416D42D8
:1005B000A8441D0043461B0200D494E0974B721CD4
:1005C0009A4200D19DE04146954BED0819400B0041
:1005D000520549075B0229431B0B520D12051343B9
:1005E000E407234308001900E0BCBA46B146A84618
:1005F000F0BD002A43D08A1B002E00D02AE14C46D1
:100600001C4300D1D1E1541E012A00D11FE2834DC9
:10061000AA4200D172E2220023E1002A00DC98E025
:10062000002942D07D498E4200D1DAE080212800A5
:10063000090408438446382A00DD29E11F2A00DC2A
:1006400087E1110065462039CD40202A04D04020A2
:100650006146821A91400F4339004F1EB9410D4344
:100660001BE12900394300D1B5E0511E012A00D118
:10067000ABE16A48824200D1B2E10A0043E769492E
:10068000751C0D4200D0CFE0002E00D093E149460A
:10069000194300D1D1E16146394300D0E3E1494635
:1006A0005807C9080143DB0826E02900394300D177
:1006B00091E0511E012A05D05848824200D18FE1B5
:1006C0000A00B8E73D004D444D45894163449846D2
:1006D00049428844434602261B0200D5EBE0013E16
:1006E0006B0700D05CE74346E9085A071143320024
:1006F000DB084A48824221D01B0352051B0B520DD6
:100700006CE70023002169E72A003A4369D04A4692
:100710005807D108DA0880231B0308431A4207D080
:100720002900ED081D4203D12A00FF08480738437D
:10073000430FC1005B07C908194313000A001A439D
:1007400000D113E28022120313431B03334A1B0B15
:1007500044E7002A4BD08A1B002E00D1E7E02F4847
:10076000814200D195E1802000040343382A00DD56
:1007700043E11F2A00DDDBE120201D004E46801AE8
:100780008540D64035434E4686403000D340461E15
:10079000B0419C440543ED19BD429B415B4263441B
:1007A00098460E007FE01E4A761A13409846F5E6FA
:1007B000280001F091FC010018311F2900DCCFE670
:1007C0002B00083883400025D2E662463A431100E8
:1007D0004F1EB941ACE649465807C9080143DB083A
:1007E00087E749465A07C9081143DB08A6E70D49C0
:1007F000701C084200D0BBE0002E00D014E1494636
:10080000194300D175E12900394300D07EE1494602
:100810005807C9080143DB086EE7C046FF07000020
:10082000FFFF7FFFFE0700004946CD1B6146581AB7
:10083000A94589414942884601004046091A88462F
:10084000090200D5A6E04146294300D07FE60023F7
:10085000002451E7C74CA14200D1C7E08024240402
:100860002343382A54DC1F2A00DDCCE020244846EC
:10087000A41A1D004E46A040D640A5400400D34017
:1008800062463543661EB441D31A9C46254344E074
:1008900062463A4315006F1EBD414D444D458941A6
:1008A00049428846984443461B0200D418E7B14B9E
:1008B00001369E4249D04246AF4B01211A401300F7
:1008C0006A080D401543D9075B0898460D4365E655
:1008D00018001F3EF040202A03D040218A1A93407E
:1008E0001D43691E8D410023002698460543F7E607
:1008F000110065462039CD40202A04D040206146B1
:10090000821A91400F4339004F1EB94129430FE627
:100910004A4613431D006B1E9D417D1BAF429B4108
:1009200062465B42D31A984654460E0007E6484694
:10093000184300D1B3E0501E012A00D10DE18D4DC6
:10094000AA4200D1A5E0020010E7320000230021F6
:1009500044E620213800891A65468F408D40D040FA
:10096000791E8F4105433D436746D740DB1994E725
:10097000804A904200D1ECE0390049444945924117
:10098000634452429B18DD0749085B0898460600FD
:100990000D43A5E64A46BD1AAF4289416246494227
:1009A000D31A5B1A98465446D1E56C07F9082143DF
:1009B000EB0804009DE64A461A4375D16146394367
:1009C00014D1802300241B03BCE64A46D51BA9454D
:1009D0008941624649429B1A5B1A98460126AEE558
:1009E0004A46D1085A071143DB08A7E66346F908CF
:1009F0005A0754461143DB08A0E64A4613431D003C
:100A00006B1E9D41C7E614001E00203CE640202AD4
:100A100005D04024A21A93404A461A4391464D46B7
:100A20006B1E9D41354378E74A461A4300D06BE67A
:100A30006B07F9081943EB0880E66146394354D047
:100A40006346F9085C072143DB08040054E64A4684
:100A5000BD1AAF42894162464942D31A5B1A984691
:100A6000040001266BE54A46D51BA945894162462B
:100A700049429A1A521A9046120232D54A46BD1A73
:100A8000AF42894162464942D31A5B1A9846040034
:100A900084E56346F9085A071143DB084EE6F90876
:100AA00068070143EB0824E662463A4300D198E622
:100AB0004A46D1085A071143DA0880231B031A4219
:100AC00008D06046C5081D4204D154462A00F908E2
:100AD000430719434B0FC9005B07C90819431300AB
:100AE0002CE64146294300D0FAE500230A00002401
:100AF00002E66B07F9081943EB08FDE56346F908C0
:100B00005B07194363460400DB0817E63D004D44CC
:100B100063444D45894198464942884443461B02F7
:100B200000D4DDE54246144B01261A409046D7E535
:100B300010001E002038C640202A05D04020821A0E
:100B400093404A461A4391464D466B1E9D4135439C
:100B500021E602000023002140E54A46D519BD42A6
:100B600089416344984649428844B3E50021014ADB
:100B70000B0033E5FF070000FFFF7FFFF0B557468E
:100B80004E464546DE46E0B5814605000C0348006A
:100B900092461F0085B0240B400DCE0F002859D07F
:100BA000874B984200D198E06B0FE4001C438023F0
:100BB0001B0423439846834BED009B460023994634
:100BC000834400933C037B005046240B5B0DFF0FD6
:100BD000002B67D07A4A934218D07A49420F8C464C
:100BE000E40059461443802263441204CB1A144390
:100BF0009B46C200002033007B409A464B460F2B99
:100C000000D9EFE070499B00CB589F466F4B52468E
:100C10009C462243E344002A00D095E04946022343
:100C20001943894600240220E5E70023002400251B
:100C300052461B052343D20713432800190005B071
:100C4000F0BCBB46B246A946A046F0BD0024002534
:100C50005B4BEDE74B462343984600D189E0002CDF
:100C600000D1E0E1200001F037FA010002000B3969
:100C70001D235B1A49461000D940083884400B00F8
:100C80004D4623439846854051483C03831A9B4672
:100C90000023994600937B005046240B5B0DFF0F09
:100CA000002B97D15246224355D0002C00D1CAE1E7
:100CB000200001F011FA02000B3A1D2301009B1ADB
:100CC00052460839DA408C40144352468A40414B20
:100CD00058449B46834400208DE74B462343984667
:100CE00040D108239946063B00258346009369E7D7
:100CF000B246009B022BA9D0032B00D111E2012B9D
:100D000093D0354A5A44002A00DC3CE16B0700D0FE
:100D1000A7E1ED084346DB0106D542462F4B1A40BA
:100D200090468022D2005A442D4B9A428EDC434694
:100D3000520558075C020543240B530D78E7BA4669
:100D4000A04615000090D4E74A4603231A43914673
:100D5000032052464FE749460123194389460024A0
:100D6000012048E70C239946093BA046834600939F
:100D700028E70423994600239B460133002500936E
:100D800020E7002380249A4600250D4B24034FE7DB
:100D9000802341461B03194208D01C4206D11C4344
:100DA0002403BA461500064B240B41E78024434632
:100DB00024031C432403B246014B240B38E7C046EE
:100DC000FF07000001FCFFFF54BE000801F8FFFF11
:100DD0000DFCFFFFF3030000FF030000FFFFFFFE19
:100DE000FE070000444500D216E100D111E10123C5
:100DF0005B429C462E0040460025E3442302140E2D
:100E00001C431B0C994623041F0C120249460092F6
:100E10000197FFF71BFA02007A430B04310C80465E
:100E200019438A420BD901235B429C460919E044CD
:100E30008C4204D88A4202D9831E98460919881A1E
:100E40004946FFF703FA09048C4631046646019AC5
:100E5000090C4243030031438A4204D90919013B7A
:100E60008C4200D811E1891A4246009E12041A43AE
:100E7000330C1F00100C9046029313043204160C1E
:100E800032001B0C5A4303967B4346437843170CAE
:100E9000BC469B1963449E4203D980267602B44621
:100EA00060441E0C301816041B04360C9E19814237
:100EB00000D29CE000D197E0AE1B091AB5428041F8
:100EC0004042081A844200D111E14946FFF7BEF9B9
:100ED000019A0B044243310C050019438A4207D999
:100EE0000919013D8C4203D88A4201D9851E09198E
:100EF000881A4946FFF7AAF909048C463104664668
:100F0000019A090C4243030031438A4207D9091967
:100F1000013B8C4203D88A4201D9831E0919039EE2
:100F2000891A32002D041D43029F2B041B0C5A43C7
:100F30007B439C46280C4643130CB44463447843DB
:100F40009E4203D980267602B44660441E0C1204E9
:100F50001B04120C30189B18814206D302D00123C7
:100F60001D43CEE6002B00D1CBE661186E1EA142D8
:100F700000D2A4E0814200D2C9E000D1D9E035001E
:100F8000EDE701256D420121891A382900DD4CE683
:100F90001F2900DC7FE01F235B429A1A4346D3409F
:100FA000202904D04446654A5A44944025436A1E89
:100FB000954107222B43150000241D401A4200D101
:100FC000A1E00F2200241A40042A00D198E01A1D43
:100FD0009A429B415B42E4181300220200D48FE046
:100FE00001230024002523E6B54200D364E74346ED
:100FF0005A1E009B9C4665441F009D429B415B42DC
:101000001B19C9188C423AD2884263D860D09046E6
:1010100052E7AA4200D9EAE64346DE0758086B08C1
:101020001E43ED07EAE6484601F056F801000200CB
:10103000153120321C2900DC1AE64B460838834063
:101040000025984620E601F047F803001A00153203
:1010500020301C2A00DC30E65446083B00229C402D
:1010600035E60F232B40042B00D152E605235B42CB
:10107000AB429B4104355B42ED0898444AE68C4202
:10108000C5D1AF42C0D9904616E78A4200D8EAE6F9
:10109000831E0919E7E62A4A28005A444346954028
:1010A0009340C8406A1E9541444603432B43CC40BD
:1010B0005A0792D00F221A40042A88D18DE73500B2
:1010C000814200D04BE7009A934200D047E718E6F0
:1010D000AE429CD902235B429C46009BE0449C4666
:1010E00065449D429B415B421B19C918E4E6154AC1
:1010F0005A44002A00DC44E701230025984409E60D
:1011000065076402240BDB081D43002390E5009E65
:10111000023D7200B242BF417F423C190919009260
:10112000CEE78024434624031C432403064B240BB0
:101130007EE5009A9A42EAD33500C4E73E040000F7
:101140001E040000FF030000FF070000F0B54F463B
:101150004646D646944691461A03120B184DC0B522
:101160004C000F0392465A00060080463F0B0120B8
:10117000640DC90F520DDB0FAC420AD0AA4203D056
:10118000944201D157450DD0E0BCBA46B146A846BD
:10119000F0BD3D003543F7D1A242F5D15246654638
:1011A0002A43F1D10120C845EED1994206D0002C46
:1011B000EAD13E433000461EB041E5E70020E3E7B8
:1011C000FF070000F0B54E4645465746DE46040090
:1011D0001800E0B516001B031B0B324D0F034A002D
:1011E00099464300A446B0463F0B520DC90F5B0D14
:1011F000C00FAA4229D0AB4218D0002A2AD13C43C2
:10120000A34665426541002B02D14C46264327D0B8
:10121000002D15D1814228D0022001390840013823
:10122000F0BCBB46B246A946A046F0BD4D462E4393
:101230002FD1002AEED13C4365426541002DE9D013
:101240000028EDD101204042EAE73D00254320D1AE
:101250009342EBD0002BDDD14C462643DAD1DBE7BD
:101260005B460020002BDBD0D6E79A420ADCE7DBA6
:101270004F45D1D810D000204F45D1D20029E1D020
:101280000800CDE74342584102234042184001384C
:10129000C6E702204042C3E7C445BDD80020C4458C
:1012A000BED2EBE7FF070000F0B54E464546574675
:1012B000DE4604001800E0B516001B031B0B314D81
:1012C0000F034A0099464300A446B0463F0B520D17
:1012D000C90F5B0DC00FAA4211D0AB4214D0002A37
:1012E0002FD13C43A34665426541002B14D14C46A7
:1012F000264311D15B460020002B17D010E03D00A3
:10130000254312D193421CD14D462E430DD1002AC4
:1013100004D13C4365426541002D0DD1814216D078
:10132000022001390840013800E00220F0BCBB4631
:10133000B246A946A046F0BD0028F7D101204042A0
:10134000F4E7002BEAD14C462643E7D1E8E79A427E
:1013500006DD434258410223404218400138E5E788
:101360009A42E9DB4F45DBD806D000204F45DDD25D
:101370000029E3D00800D9E7C445D1D80020C445EE
:10138000D4D2F5E7FF070000F0B557464E46454674
:10139000DE46E0B598460C034B000600924687B047
:1013A000240B5B0DCF0F002B6CD0DD4A934200D194
:1013B00086E0420FE4001443802212041443D94A09
:1013C000C500944663440093002399469B464346D8
:1013D00042461E03D20F5B0050469046360B5B0D13
:1013E00000D178E0CE4A93421DD0CE49420F8C46C0
:1013F00000996344F6008C46164380229C441204F4
:1014000063461643C2000020009300994346013111
:101410008C4649467B4001930F2900D97EE0C24BA0
:10142000890059588F465246009B324300D056E1FE
:10143000BB4900268C466344494600930223194366
:1014400089460220E1E743460193340015008346B4
:101450005B46022B5ED0032B00D1F3E1012B00D0C1
:1014600018E1002200240025019B12052243DB071E
:101470001A432800110007B0F0BCBB46B246A9468B
:10148000A046F0BD2500054300D141E1002C00D16C
:10149000ADE1200000F020FE010002000B391D2309
:1014A00010005B1A3100350008388440D94085406F
:1014B0000C439E48831A0093002399469B4686E777
:1014C0000500254300D01CE10822009302230024DC
:1014D00091469B467BE75246324300D10AE1002EFB
:1014E00000D176E1300000F0F7FD02000B3A1D2339
:1014F00001009B1A52460839DA408E401643524684
:101500008A40009B8949181A03008C4663440020D6
:1015100000937AE700240025814AA5E72F0C2D04CB
:101520002D0C2B00110C1204120C5343984613007F
:1015300028007B43994648434844834640460B0075
:10154000000C824658467B4350440293814506D99D
:101550009A4680235B029946CA4453460293030C81
:101560009B4643461B0400041B0C9846030043445F
:101570000493330C99462B003604360C734398467B
:1015800033007B439A464B465D435F434346554495
:10159000180C4019824503D980235B029A465744B0
:1015A000050CEB19059343461D042D0C000440194E
:1015B000250C2404240C270057436A4390462A0034
:1015C0003B0C9A464A436143414451448344884515
:1015D00003D980235B02984642443F040B0C3F0C26
:1015E0000904C919270098464B4677435C436E436C
:1015F0005D433B0C9946A4194C4442440395A642D2
:1016000004D980235B02984645440395029B3F041E
:101610005B441E008342804123049846059B3F0C97
:101620004744984676188E428941474440423D18C7
:10163000A846934649428A46C3449F42BF418045DB
:101640008041039BDA449846534640427F42074319
:10165000240C934592418A4589413F19DC0D049B36
:1016600075021D43681E85415346524249420A4352
:10167000BF184744F60D7F0235435A023C431543D9
:10168000FB0100D4C1E001216A080D401543E207C7
:101690001543640826496144002956DD6B0709D0CB
:1016A0000F222A40042A05D02A1DAA42AD416D42CC
:1016B00064191500E30104D580211E4AC9001440B5
:1016C00061441D4A914200DD24E76207ED0864028F
:1016D00049051543240B4A0DC6E60197B8E6104AA2
:1016E0000320944663444A46009303231A439146D9
:1016F00052468AE6494601231943894600260120BD
:1017000083E60C2200930323050091469B465EE688
:101710000423994600230093013300249B4656E698
:10172000FF07000001FCFFFF94BE00080DFCFFFF57
:10173000FF030000FFFFFFFEFE07000000238024E0
:101740000025444A019324038EE60120401A3828DC
:1017500000DD86E61F285BDD1F2223005242511A5E
:10176000CB401900202803D03B4A624494402543D3
:101770006A1E95412A000A4307210D0000241540E6
:1017800011425BD00F2100241140042953D0111DB8
:10179000914292415242A4180A0023024BD50122E1
:1017A0000024002560E680231B031C4209D01E4252
:1017B00007D133431C0343461500240B254A0193EC
:1017C00052E68022120314432403224A240B019779
:1017D0004AE600F081FC03001A00153220301C2A72
:1017E00000DC84E65646083B00229E4089E600F075
:1017F00073FC01000200153120321C2900DC4EE68A
:10180000340008380025844053E6009B9C4641E79D
:101810001249220061442E008D408A40C640691E54
:101820008D4132432A43C4405307B6D00F211140A3
:101830000429ACD1B1E765076402240BD208154333
:10184000002211E68022120314432403014A240BD0
:101850000AE6C046FF0700003E0400001E04000028
:10186000F8B557464E464546DE460400E0B51F0033
:1018700010000B03620F4E00CD0F5B0A39031343B8
:10188000490AE200440F2143C24C91469246C000EF
:101890007A008046760D520DFF0FA24200D1B4E0CF
:1018A00001246740BB46BD4200D188E0B41AA4467B
:1018B000002C00DCB2E0002A00D1C5E0B54A964217
:1018C00000D18BE28022120411436246382A00DDE7
:1018D000A1E11F2A00DD16E220270C00BF1ABC4040
:1018E0000200A0466446B840E24044461443020069
:1018F000501E82416046C14022435B1A49468C1A01
:10190000A145924152429B1A984643461B0200D47D
:1019100017E143465B025B0A98464346002B00D121
:101920006CE1404600F0D8FB0200083A202120007C
:101930004346891A9340C84094400343964200DDD1
:1019400057E1961B711C1F2900DDCBE120221800F6
:101950002600521A94409040CE40CB40621E9441E3
:101960003043984600260443630709D00F232340E1
:10197000042B05D0231DA342A4416442A0441C00B3
:1019800043461B0200D4DFE0824B01369E4200D169
:10199000FBE04246804BE4081A40130071055207F1
:1019A0005B0222431B0B490D0905ED07194329432F
:1019B0001000F0BCBB46B246A946A046F8BDB41A1A
:1019C000A446002C58DD002A00D19EE0714A9642C0
:1019D00000D13BE18022120411436246382A00DD27
:1019E000C1E01F2A00DCBBE10C00203AD4402200F9
:1019F0006446202C04D040273F1BB9400843804652
:101A00004446611E8C411443B1E00C0004432AD0CB
:101A1000BB46BD422DD0614CA446B4446446002C64
:101A20005CD0941BA446002E00D015E14D461D430A
:101A300000D1C3E1651E012C00D10CE2554EB44229
:101A400000D1F8E1AC460EE10A00024300D136E1D4
:101A50002200013A012C00D1C6E14E4CA44500D130
:101A6000F4E0944631E701246740BB46BD4200D014
:101A70001CE74A4CA446B4446446002C00D1CFE095
:101A8000941BA446002E00D15CE1424EB24200D12C
:101A9000ECE18026360433436446382C00DDB3E1A4
:101AA0001F2C00DD38E22026361B1C00B4404F46B8
:101AB000A0466446E74044463C434F46B7403E009C
:101AC000771EBE4134436646F340C9182418844249
:101AD0009B415B429846160088444EE0304A741C95
:101AE000144200D0D6E04A461A43002E00D05BE1F3
:101AF000002A00D1A5E10A00024300D0BBE14A461A
:101B00005907D2080A43DB0827E00A00024300D144
:101B100074E12200013A012C05D01E4CA44500D1ED
:101B200094E0944659E74844484592415B189846EA
:101B3000040052429044434602261B0200D5C4E0F2
:101B4000013E630700D011E74346B4465907E20857
:101B50000A43DB080F498C4540D061461B03490509
:101B60001B0B490D20E701430C00611E8C414C44C6
:101B70004C45924152429046984443461B02E0D560
:101B8000044B01369E4200D09FE03100002300222A
:101B90000AE7C046FF070000FFFF7FFF01F8FFFFD5
:101BA000FE070000002A00D160E10A0002434DD088
:101BB0004A465C07D20822438024DB0824032342E0
:101BC00007D0CE08264204D15D463300C20849073B
:101BD0000A43510FD200D20849070A4311001943A2
:101BE00000D1C8E1802109030B431B03D5491B0B1E
:101BF000DAE6D549B61A0B409846B5E6200000F063
:101C00006BFA020018321F2A00DC8FE62300083826
:101C10008340002492E608430200501E82416DE694
:101C2000CA4C721C224200D0ADE04A461A43002E34
:101C3000B8D1002A00D158E10A00024300D059E18E
:101C40004A465907D2080A43DB0886E74A4659073D
:101C5000D2080A43DB08C1E7BA4DAA4200D11EE10F
:101C600080252D042B436446382C5DDC1F2C00DDC1
:101C7000D0E0202567462D1B4E461C00FE40AC40A0
:101C800034434E46AE403500FB406E1EB541C91A86
:101C90002C434EE04A46141AA145924152429046C6
:101CA0005F1A3A004746D21B9046120200D58BE0DD
:101CB0004246224300D030E6002300254DE74A4645
:101CC0005907D2080A43DB0844E742469E4B6108A5
:101CD0001A401300012214400C43DA075B089846AF
:101CE000144341E61A001F3EF2401600202903D09B
:101CF0004022511A8B401C43621E944100233443FE
:101D0000984600261DE70C00203AD4402200644685
:101D1000202C04D040273F1BB9400843804644464E
:101D2000611E8C412243E9E54C4623431C00631E9F
:101D30009C41041BA0429B415B42CB1A98465D46E6
:101D40001600E2E54E461E4300D1AEE0661E012CB1
:101D500000D1FDE07B4FBC4200D107E1B4469BE6D9
:101D600064462022121B0C00944007009040A046BD
:101D70006446421E90416246E7404446D1403C439F
:101D800004435B18F3E66F4CA24200D1D5E048440F
:101D90005B184845894149425B18DC0740085B08ED
:101DA000984616000443CCE6002A00D082E00A00E0
:101DB000024340D1802300251B0313E74B07C208D1
:101DC0001A435D46CB08C5E64A46841AA0429241B2
:101DD000CB1A52429B1A98465D469EE54A465907E1
:101DE000D2080A43DB08F9E64A46141AA145924193
:101DF0005B1A52429B1A9846012686E54A465907C5
:101E0000D2080A43DB08A5E64C4623431C00631EA8
:101E10009C415BE665461E00203DEE40202C05D02F
:101E200040252D1BAB404C461C43A2465446631E26
:101E30009C4134437DE74B07C2081A435D46CB08FB
:101E4000CCE60A00024300D136E74B07C2081A432A
:101E50005D46CB0881E64A46841AA0429241CB1ADD
:101E600052429B1A98465D4601264EE54B07C20832
:101E70001A43CB08B2E64A46141AA14592415F1AAA
:101E80005242BA1A904612026BD54A46841AA042B0
:101E90009241CB1A52429B1A98465D4664E54B0725
:101EA000C2081A435D46CB0898E64B07C2081A439E
:101EB000CB084FE60A00024390D04A465C07D2089E
:101EC00014438022DB081203134208D0CE081642C6
:101ED00005D1C0084907084304005D463300610F7F
:101EE000E2004907D2080A4378E64B07C2081A43C2
:101EF000CB0832E648445B18484592419846524226
:101F00009044434604001B0200D41AE642460E4B9E
:101F100001261A40904614E666461F00203EF74010
:101F2000202C05D04026361BB3404C461C43A2460D
:101F30005446631E9C413C43C8E511000023002227
:101F400032E5C046FF070000FFFF7FFFFE070000ED
:101F50004A461418844292415B1898465242904473
:101F6000E9E54246224300D1A6E6EAE54B07C2086E
:101F70001A43CB0832E600220149130014E5C0469B
:101F8000FF07000070B505000C480C03160049005F
:101F90001A035B00240B490D120B5B0D814208D024
:101FA000064900208B4203D132431000421E90416B
:101FB00070BD01202C43FBD1F2E7C046FF070000B3
:101FC0000A0030B5134C530009030500090B00202B
:101FD0005B0DD20FA34204DD0F48834202DD0F4B9D
:101FE000D01830BD8020400301430D48C01A1F287F
:101FF00008DD0C48C31AD9400B005842002AF0D122
:102000001800EEE7084CC540A446634499400B0015
:102010002B43F2E7FE0300001D040000FFFFFF7FDB
:102020003304000013040000EDFBFFFF70B500282F
:1020300016D0C317C5185D40C40F280000F04CF837
:10204000114A121A0A2816DC03002E0015339E408E
:102050000B23181AC54053052D032D0B5B0D03E010
:1020600000240023002500261B052B43E4072343FF
:102070003000190070BD0B38854053052D03002634
:102080002D0B5B0DF0E7C0461E04000010B5041ECA
:1020900010D000F021F80F4B1B1A0A2811DC0B227C
:1020A0002100121AD14015300A035B058440120B3F
:1020B0005B0D01E0002300221B05134320001900E3
:1020C00010BD22000B3882405B0512030024120B66
:1020D0005B0DF1E71E0400001C2101231B04984244
:1020E00001D3000C10391B0A984201D3000A0839A9
:1020F0001B09984201D30009043902A2105C401860
:102100007047C04604030202010101010000000003
:102110000000000080B582B000AFFB1D00221A70E5
:102120000B4B1A680A4B40210A431A60002000F04A
:1021300011F8031E03D0FB1D01221A7001E006F006
:102140007DFBFB1D1B781800BD4602B080BDC0465C
:102150000020024090B585B000AF78600F243B1995
:1021600000221A700F4B1B68FA2291001800FDF72D
:10217000E7FF0300180000F0B0FC031E03D03B197A
:1021800001221A7006E0796801235B4200221800E0
:1021900000F07EFC0F23FB181B781800BD4605B02D
:1021A00090BDC0461400002080B500AF034B1B68F3
:1021B0005A1C024B1A60C046BD4680BD5802002022
:1021C00080B500AF024B1B681800BD4680BDC046FD
:1021D0005802002080B584B000AF7860FFF7F0FFB0
:1021E0000300BB607B68FB60FB68013302D0FB68C7
:1021F0000133FB60C046FFF7E3FF0200BB68D31A60
:10220000FA689A42F7D8C046C046BD4604B080BDC1
:1022100080B582B000AF78607B68002B01D10123CC
:1022200059E17B685B6D002B0AD17B6800229A65BF
:102230007B685022002199547B68180002F01CFD35
:102240007B685B6D10221340102B05D07B681B68E8
:102250009B68042213400BD07B685B6D10221A43ED
:102260007B685A657B68502200219954012332E132
:102270007B685B6D9A4A134002221A437B685A6559
:102280007B681B689B6803221340012B08D17B6885
:102290001B681B6801221340012B01D1012300E0C0
:1022A0000023002B49D17B685A68C0231B069A4241
:1022B0000BD07B685A688023DB059A4205D07B6887
:1022C0005A6880231B069A4211D17B681B681A69E1
:1022D0007B681B68920092081A617B681B68196909
:1022E0007B685A687B681B680A431A6114E07B6844
:1022F0001B681A697B681B68920092081A61794B07
:102300001A68784B78490A401A60764B19687B68DE
:102310005A68744B0A431A607B681B68DA687B68EA
:102320001B6818218A43DA607B681B68D9687B6860
:102330009A687B681B680A43DA606A4B1A68694BC3
:102340006A490A401A60674B19687B685B6B5A06DA
:10235000644B0A431A607B681B689A6880235B059C
:10236000134008D17B681B689A687B681B688021D2
:1023700049050A439A607B681B68DA687B681B68BA
:102380005B490A40DA607B681B68D9687B68DA6859
:102390007B681B69022B01D1042300E000231A4350
:1023A0007B6820201B5C5B031A437B682C201B5C32
:1023B0005B001A437B681B6B1A437B689B699B031A
:1023C0001A437B68DB69DB031A437B681B680A439B
:1023D000DA607B685A6AC223FF339A420BD07B686B
:1023E0001B68D9687B685A6A7B689B6A1A437B685A
:1023F0001B680A43DA607B6821229B5C012B1AD19F
:102400007B6820229B5C002B09D17B681B68DA6803
:102410007B681B68802149020A43DA600BE07B6815
:102420005B6D20221A437B685A657B689B6D012295
:102430001A437B689A657B68DB6B012B1FD17B6835
:102440001B681A697B681B682A490A401A617B6805
:102450001B6819697B681A6C7B685B6C1A437B6824
:102460009B6C1A437B681B680A431A617B681B6874
:102470001A697B681B6801210A431A610EE07B68B8
:102480001B681B6901221340012B07D17B681B6865
:102490001A697B681B6801218A431A617B681B6883
:1024A0005A697B681B6807218A435A617B681B68ED
:1024B00059697B689A6B7B681B680A435A617B6821
:1024C00000229A657B685B6D0322934301221A43C5
:1024D0007B685A6500231800BD4602B080BDC04627
:1024E000FDFEFFFF08270140FFFFC3FFFFFFFFFDC9
:1024F0001902FEFF03FCFFFF90B587B000AFF86044
:10250000B9607A601723FB1800221A70FB681B68F9
:102510009B68042213405ED1FB6850229B5C012B18
:1025200001D102235EE0FB68502201219954FB682F
:10253000DB69012B07D01723FC18FB68180000F09B
:10254000FBF8030023701723FB181B78002B46D1E0
:10255000FB685B6D254A1340802252001A43FB68DA
:102560005A65FB6800229A65FB6850220021995445
:10257000FB68DB6C1E4ADA62FB68DB6C1D4A1A637F
:10258000FB68DB6C1C4A5A63FB681B681C221A60E0
:10259000FB681B685A68FB681B6810210A435A6075
:1025A000FB681B68DA68FB681B6801210A43DA6074
:1025B000FB68D86CFB681B6840331900BA687B68FD
:1025C00000F010FBFB681B689A68FB681B6804211D
:1025D0000A439A6003E01723FB1802221A7017239C
:1025E000FB181B781800BD4607B090BDFEF0FFFF3A
:1025F000F9270008AD280008CB28000880B582B074
:1026000000AF7860C046BD4602B080BD80B582B0E4
:1026100000AF7860C046BD4602B080BD80B582B0D4
:1026200000AF7860C046BD4602B080BD80B582B0C4
:1026300000AF786039607B6850229B5C012B01D130
:1026400002236CE07B685022012199547B681B684F
:102650009B68042213400BD07B685B6D20221A43D9
:102660007B685A657B68502200219954012356E00B
:102670003B685B682C4A934228D07B681B68996A48
:102680003B681B685B035A0B7B681B680A439A62B2
:102690003B681A688023DB02134009D0234B1A6879
:1026A000224B802109040A431A600A2000F028F90D
:1026B0003B681A6880239B0213402BD01B4B1A687F
:1026C0001A4B8021C9030A431A6023E07B681B6808
:1026D0009A6A3B681B685B035B0BD9437B681B688A
:1026E0000A409A623B681A688023DB02134005D0D7
:1026F0000E4B1A680D4B0E490A401A603B681A6867
:1027000080239B02134005D0084B1A68074B0949E8
:102710000A401A607B685022002199540023180057
:10272000BD4602B080BDC046011000000827014030
:10273000FFFF7FFFFFFFBFFF80B584B000AF786071
:102740000023FB607B681B689B6803221340012BFE
:1027500008D17B681B681B6801221340012B01D143
:10276000012300E00023002B3FD17B681B689B689E
:10277000204A13400DD07B685B6D10221A437B68A2
:102780005A657B689B6D01221A437B689A65012319
:102790002CE07B681B689A687B681B6801210A43F0
:1027A0009A60012000F0ACF8FFF70AFD0300FB601F
:1027B00014E0FFF705FD0200FB68D31A0A2B0DD9C0
:1027C0007B685B6D10221A437B685A657B689B6D42
:1027D00001221A437B689A65012307E07B681B6826
:1027E0001B6801221340012BE3D100231800BD46D2
:1027F00004B080BD1700008080B584B000AF786061
:102800007B689B6AFB60FB685B6D5022134041D183
:10281000FB685B6D802292001A43FB685A65FB6877
:102820001B68DA68C0231B0113402ED1FB682022ED
:102830009B5C002B29D1FB681B681B680822134096
:10284000082B22D1FB681B689B680422134010D11F
:10285000FB681B685A68FB681B680C218A435A6036
:10286000FB685B6D104A134001221A43FB685A65EE
:102870000BE0FB685B6D20221A43FB685A65FB681E
:102880009B6D01221A43FB689A65FB681800FFF7ED
:10289000B5FE05E0FB68DB6C5B6B7A68100098475F
:1028A000C046BD4604B080BDFEFEFFFF80B584B0CB
:1028B00000AF78607B689B6AFB60FB681800FFF7DD
:1028C000A5FEC046BD4604B080BD80B584B000AF53
:1028D00078607B689B6AFB60FB685B6D40221A43F3
:1028E000FB685A65FB689B6D04221A43FB689A6576
:1028F000FB681800FFF792FEC046BD4604B080BDDD
:1029000080B584B000AF78600B4B1B680B49180092
:10291000FDF716FC03001A007B685343FB6002E0DE
:10292000FB68013BFB60FB68002BF9D1C046C04649
:10293000BD4604B080BDC0461400002040420F00D8
:1029400080B582B000AF0200FB1D1A70FB1D1B7822
:102950001A001F231A40044B012191400A001A60FB
:10296000C046BD4602B080BD00E100E090B583B036
:1029700000AF02003960FB1D1A70FB1D1B787F2B16
:1029800032D92F4AFB1D1B7819000F230B40083B3F
:102990009B0806339B00D31804331B68FA1D12787A
:1029A000110003220A40D200FF2191400A00D243C5
:1029B0001A4011003B689B01FF221A40FB1D1B7847
:1029C000180003230340DB009A401D48FB1D1B78C1
:1029D0001C000F232340083B9B080A4306339B003F
:1029E000C31804331A6027E0164AFB1D1B785BB23C
:1029F0009B08C0339B009B58FA1D127811000322DC
:102A00000A40D200FF2191400A00D2431A4011002F
:102A10003B689B01FF221A40FB1D1B781800032313
:102A20000340DB009A400748FB1D1B785BB29B0804
:102A30000A43C0339B001A50C046BD4603B090BD48
:102A400000ED00E000E100E080B582B000AF78600A
:102A50007B685A1E80235B049A4201D3012310E055
:102A60000A4B7A68013A5A6001235B42032118003D
:102A7000FFF77CFF054B00229A60044B07221A6087
:102A800000231800BD4602B080BDC04610E000E043
:102A900080B584B000AFB9607A600F217B18021C4A
:102AA0001A70BA687B181B785BB211001800FFF728
:102AB0005DFFC046BD4604B080BD80B582B000AFAA
:102AC0000200FB1D1A70FB1D1B785BB21800FFF79C
:102AD00037FFC046BD4602B080BD80B582B000AFB2
:102AE00078607B681800FFF7AFFF03001800BD4651
:102AF00002B080BD80B584B000AF78607B68002BE9
:102B000001D1012361E07B681B68324A944663442B
:102B100014211800FDF714FB03009A007B685A6427
:102B20007B682D4A1A647B682522022199547B68B0
:102B30001B681B68FB60FB68284A1340FB607B68CE
:102B40009A687B68DB681A437B681B691A437B6859
:102B50005B691A437B689B691A437B68DB691A438C
:102B60007B681B6A1343FA681343FB607B681B682E
:102B7000FA681A607B689A688023DB019A4218D051
:102B8000174B1A687B685B6C1C210B400F21994026
:102B90000B00D943124B0A401A60114B19687B682D
:102BA0005A687B685B6C1C2003409A400C4B0A43BC
:102BB0001A607B680022DA637B6825220121995420
:102BC0007B6824220021995400231800BD4604B0DC
:102BD00080BDC046F8FFFDBF000002400F80FFFF30
:102BE000A800024080B586B000AFF860B9607A6096
:102BF0003B601723FB1800221A70FB6824229B5CA1
:102C0000012B01D102234FE0FB68242201219954BA
:102C1000FB6825229B5CDBB2012B3AD1FB682522A5
:102C200002219954FB680022DA63FB681B681A686A
:102C3000FB681B6801218A431A603B687A68B9689F
:102C4000F86800F0E3F8FB681B6B002B08D0FB680A
:102C50001B681A68FB681B680E210A431A600FE0A4
:102C6000FB681B681A68FB681B6804218A431A60AA
:102C7000FB681B681A68FB681B680A210A431A6014
:102C8000FB681B681A68FB681B6801210A431A600D
:102C900007E0FB682422002199541723FB18022225
:102CA0001A701723FB181B781800BD4606B080BDAC
:102CB00080B584B000AF78607B681B6C1B68FB60DC
:102CC0007B681B681B68BB607B685B6C1C221340C5
:102CD00004229A401300FA68134026D0BB680422ED
:102CE000134022D07B681B681B682022134007D149
:102CF0007B681B681A687B681B6804218A431A601A
:102D00007B685B6C1C221A407B681B6C0421914021
:102D10000A005A607B681B6B002B00D171E07B6856
:102D20001B6B7A68100098476BE07B685B6C1C2219
:102D3000134002229A401300FA6813402DD0BB685A
:102D40000222134029D07B681B681B682022134095
:102D50000BD17B681B681A687B681B680A218A4351
:102D60001A607B682522012199547B685B6C1C22C8
:102D70001A407B681B6C022191400A005A607B68F4
:102D80002422002199547B68DB6A002B39D07B68B0
:102D9000DB6A7A681000984733E07B685B6C1C2222
:102DA000134008229A401300FA6813402AD0BB68E7
:102DB0000822134026D07B681B681A687B681B6852
:102DC0000E218A431A607B685B6C1C221A407B6868
:102DD0001B6C012191400A005A607B680122DA6372
:102DE0007B682522012199547B6824220021995473
:102DF0007B685B6B002B05D07B685B6B7A6810008F
:102E00009847C046C046BD4604B080BD80B584B07A
:102E100000AFF860B9607A603B60FB685B6C1C22B5
:102E20001A40FB681B6C012191400A005A60FB6844
:102E30001B683A685A60FB689B68102B08D1FB68D6
:102E40001B687A689A60FB681B68BA68DA6007E0FA
:102E5000FB681B68BA689A60FB681B687A68DA606E
:102E6000C046BD4604B080BD80B586B000AF786076
:102E7000396000237B610023FB6000233B614FE14D
:102E80003B681B6801217A6991400A001340FB608E
:102E9000FB68002B00D140E13B685B68022B03D04C
:102EA0003B685B68122B23D17B69DA087B680832A8
:102EB0009200D3583B617B69072213409B000F228D
:102EC0009A401300DA433B6913403B613B681A693F
:102ED0007B6907210B409B009A4013003A6913431A
:102EE0003B617B69DA087B68083292003969D1500E
:102EF0003B685B68012B0BD03B685B68022B07D0FB
:102F00003B685B68112B03D03B685B68122B30D1A8
:102F10007B689B683B617B695B0003229A401300DE
:102F2000DA433B6913403B613B68DA687B695B00CD
:102F30009A4013003A6913433B617B683A699A608F
:102F40007B685B683B6101227B699A401300DA432E
:102F50003B6913403B613B685B681B0901221A40D7
:102F60007B699A4013003A6913433B617B683A6975
:102F70005A607B681B683B617B695B0003229A4057
:102F80001300DA433B6913403B613B685B680322F3
:102F90001A407B695B009A4013003A6913433B6116
:102FA0007B683A691A607B68DB683B617B695B0020
:102FB00003229A401300DA433B6913403B613B68AC
:102FC0009A687B695B009A4013003A6913433B613E
:102FD0007B683A69DA603B685A6880235B05134076
:102FE00000D19AE0544B5A6B534B01210A435A6368
:102FF000524A7B699B0802339B009B583B617B696B
:10300000032213409B000F229A401300DA433B69CE
:1030100013403B617A68A023DB059A4219D07B6894
:10302000474A934213D07B68464A93420DD07B684F
:10303000454A934207D07B68444A934201D1052315
:1030400008E0062306E0032304E0022302E0012354
:1030500000E000237A6903210A40920093403A6914
:1030600013433B6135497B699B0802339B003A69F6
:103070005A50374B1B683B61FB68DA433B6913408E
:103080003B613B685A6880235B02134003D03A6976
:10309000FB6813433B612E4B3A691A602C4B5B680B
:1030A0003B61FB68DA433B6913403B613B685A680C
:1030B00080239B02134003D03A69FB6813433B61B2
:1030C000234B3A695A60224B9B683B61FB68DA43A9
:1030D0003B6913403B613B685A6880235B031340A4
:1030E00003D03A69FB6813433B61194B3A699A6014
:1030F000174BDB683B61FB68DA433B6913403B617C
:103100003B685A6880239B03134003D03A69FB68ED
:1031100013433B610E4B3A69DA607B6901337B6193
:103120003B681A687B69DA40131E00D0A8E6C046E7
:10313000C046BD4606B080BD001002400000014000
:103140000004005000080050000C0050001C00500B
:103150000004014080B584B000AF78600A00BB1C59
:103160001A807B681B69BA1C1288134004D00F2395
:10317000FB1801221A7003E00F23FB1800221A70BB
:103180000F23FB181B781800BD4604B080BD80B526
:1031900082B000AF786008001100BB1C021C1A80CE
:1031A0007B1C0A1C1A707B1C1B78002B04D0BB1CD8
:1031B0001A887B689A6103E0BB1C1A887B689A6254
:1031C000C046BD4602B080BD80B582B000AF786019
:1031D0007B68002B01D1012382E07B6841229B5C4C
:1031E000DBB2002B07D17B684022002199547B6819
:1031F000180001F089FE7B684122242199547B68E4
:103200001B681A687B681B6801218A431A607B6807
:103210005A687B681B6834490A401A617B681B68DE
:103220009A687B681B6831490A409A607B68DB6852
:10323000012B08D17B689A687B681B688021090292
:103240000A439A6007E07B689A687B681B68842160
:1032500009020A439A607B68DB68022B04D17B6811
:103260001B68802212015A607B681B685A687B6861
:103270001B681F490A435A607B681B68DA687B68D1
:103280001B681A490A40DA607B681A697B685B69C7
:103290001A4311007B689B691A027B681B680A430A
:1032A000DA607B68D9697B681A6A7B681B680A43A5
:1032B0001A607B681B681A687B681B6801210A43D7
:1032C0001A607B6800225A647B684122202199544D
:1032D0007B6800221A637B684222002199540023F4
:1032E0001800BD4602B080BDFFFFFFF0FF7FFFFF6B
:1032F0000080000290B589B002AFF8600C001000A9
:1033000019000A23FB18221C1A800823FB18021C30
:103310001A80BB1D0A1C1A80FB6841229B5CDBB231
:10332000202B00D00CE1BB6A002B04D02C23FB180F
:103330001B88002B05D1FB68802292005A64012370
:10334000FFE0FB6840229B5C012B01D10223F8E0E7
:10335000FB68402201219954FEF732FF03007B6194
:1033600080231902F8687B6900931923012200F079
:1033700075F9031E01D00123E3E0FB6841222121FE
:103380009954FB68422240219954FB6800225A64F8
:10339000FB68BA6A5A62FB682C22BA1812885A85EE
:1033A000FB6800225A63BB1D1C880823FB181A887F
:1033B0000A23FB181988F8687B6901933B6B00931B
:1033C000230000F0C5F8031E05D0FB684022002151
:1033D00099540123B5E0FB685B8D9BB2FF2B11D99B
:1033E000FB68FF221A85FB681B8DDAB280235C0420
:1033F0000A23FB181988F86800230093230000F0C3
:103400004DFA12E0FB685B8D9AB2FB681A85FB6887
:103410001B8DDAB280239C040A23FB181988F868F4
:1034200000230093230000F039FA7A69396BFB68B6
:10343000180000F052F9031E01D0012381E0FB685F
:103440005B6A1A78FB681B689A62FB685B6A5A1CA5
:10345000FB685A62FB685B8D9BB2013B9AB2FB68CA
:103460005A85FB681B8D013B9AB2FB681A85FB6885
:103470005B8D9BB2002B3AD0FB681B8D002B36D1A5
:103480003A6BF8687B69009313000022802100F0FA
:10349000E5F8031E01D0012353E0FB685B8D9BB26E
:1034A000FF2B11D9FB68FF221A85FB681B8DDAB24E
:1034B00080235C040A23FB181988F8680023009312
:1034C000230000F0EBF912E0FB685B8D9AB2FB6819
:1034D0001A85FB681B8DDAB280239C040A23FB1833
:1034E0001988F86800230093230000F0D7F9FB68DF
:1034F0005B8D9BB2002B98D17A69396BFB68180001
:1035000000F02AF9031E01D001231AE0FB681B68B2
:103510002022DA61FB681B685A68FB681B680B494C
:103520000A405A60FB68412220219954FB684222DC
:1035300000219954FB68402200219954002300E0A7
:1035400002231800BD4607B090BDC04600E800FE4B
:10355000B0B586B002AFF8600C00100019000A2563
:103560007B19221C1A800823FB18021C1A80BB1D21
:103570000A1C1A80BB1D1B88DAB280235C047B19ED
:103580001988F868234B0093230000F087F97A6AC2
:10359000396AFB68180000F0A0F8031E01D001236F
:1035A00033E0BB1D1B88012B07D10823FB181B88A8
:1035B000DAB2FB681B689A6219E00823FB181B88C3
:1035C0001B0A9BB2DAB2FB681B689A627A6A396A94
:1035D000FB68180000F081F8031E01D0012314E0FD
:1035E0000823FB181B88DAB2FB681B689A623A6AE8
:1035F000F8687B6A009313000022802100F02EF807
:10360000031E01D0012300E000231800BD4604B0D2
:10361000B0BDC0460020008080B582B000AF7860A9
:103620007B681B689B6902221340022B03D17B68D5
:103630001B6800229A627B681B689B690122134009
:10364000012B07D07B681B689A697B681B68012186
:103650000A439A61C046BD4602B080BD80B584B0C1
:1036600000AFF860B9603B60FB1D1A7021E03B6859
:1036700001331ED0FEF7A4FD0200BB69D31A3A68DD
:103680009A4202D33B68002B13D1FB685B6C20226B
:103690001A43FB685A64FB68412220219954FB6855
:1036A000422200219954FB684022002199540123B1
:1036B0000FE0FB681B689B69BA681340BA68D31AAD
:1036C0005A425341DBB21A00FB1D1B789A42CED0FE
:1036D00000231800BD4604B080BD80B584B000AFA3
:1036E000F860B9607A602BE07A68B968FB68180006
:1036F00000F06EF8031E01D0012329E0BB680133FE
:103700001ED0FEF75DFD02007B68D31ABA689A42AC
:1037100002D3BB68002B13D1FB685B6C20221A43D9
:10372000FB685A64FB68412220219954FB684222BD
:1037300000219954FB68402200219954012307E09D
:10374000FB681B689B6902221340022BCCD100232B
:103750001800BD4604B080BD80B584B000AFF860ED
:10376000B9607A6028E07A68B968FB68180000F0F0
:103770002FF8031E01D0012326E0FEF721FD0200F1
:103780007B68D31ABA689A4202D3BB68002B13D164
:10379000FB685B6C20221A43FB685A64FB68412279
:1037A00020219954FB68422200219954FB68402251
:1037B00000219954012307E0FB681B689B692022C4
:1037C0001340202BCFD100231800BD4604B080BD8C
:1037D00080B584B000AFF860B9607A60FB681B68A0
:1037E0009B6910221340102B51D121E0BB6801339B
:1037F0001ED0FEF7E5FC02007B68D31ABA689A4235
:1038000002D3BB68002B13D1FB685B6C20221A43E8
:10381000FB685A64FB68412220219954FB684222CC
:1038200000219954FB6840220021995401232FE084
:10383000FB681B689B6920221340202BD6D1FB68B4
:103840001B681022DA61FB681B682022DA61FB68C2
:103850001800FFF7E1FEFB681B685A68FB681B68ED
:103860000D490A405A60FB685B6C04221A43FB68EE
:103870005A64FB68412220219954FB6842220021AE
:103880009954FB68402200219954012300E0002351
:103890001800BD4604B080BD00E800FE90B585B0BC
:1038A00000AFF860080011007B600A243B19021C7D
:1038B0001A8009203B180A1C1A70FB681B685B6899
:1038C0003A6A510D8022D2000A400E490A43D2437F
:1038D0001A4011003B191B889B059A0D3B181B7859
:1038E0001804FF231B0403401A437B681A433B6AF6
:1038F0001A43FB681B680A435A60C046BD4605B0C0
:1039000090BDC046FF63FF0380B582B000AF786012
:1039100039607B6841229B5CDBB2202B38D17B680D
:1039200040229B5C012B01D1022332E07B684022C4
:10393000012199547B684122242199547B681B689A
:103940001A687B681B6801218A431A607B681B68C0
:103950001A687B681B6811490A401A607B681B68FB
:1039600019687B681B683A680A431A607B681B68A1
:103970001A687B681B6801210A431A607B68412230
:10398000202199547B68402200219954002300E0B3
:1039900002231800BD4602B080BDC046FFEFFFFF06
:1039A00080B584B000AF786039607B6841229B5C51
:1039B000DBB2202B39D17B6840229B5C012B01D1EB
:1039C000022333E07B684022012199547B68412225
:1039D000242199547B681B681A687B681B68012145
:1039E0008A431A607B681B681B68FB60FB68114A8E
:1039F0001340FB603B681B02FA681343FB607B6863
:103A00001B68FA681A607B681B681A687B681B6809
:103A100001210A431A607B684122202199547B6866
:103A2000402200219954002300E002231800BD46E3
:103A300004B080BDFFF0FFFFB0B58AB000AF786082
:103A40007B68002B02D1012300F0A5FBCE4BDB6885
:103A50000C2213403B62CC4BDA6880235B0213409C
:103A6000FB617B681B680122134000D17DE03B6A4B
:103A7000082B07D03B6A0C2B12D1FA6980235B021A
:103A80009A420DD1C04B1A6880239B02134000D18B
:103A90006AE07B685B68002B66D1012300F07BFB4A
:103AA0007B685A6880235B029A4207D1B64B1A683A
:103AB000B54B802149020A431A6027E07B685A68A7
:103AC000A023DB029A420ED1AF4B1A68AE4B802185
:103AD000C9020A431A60AC4B1A68AB4B80214902F9
:103AE0000A431A6012E0A84B1A68A74BA7490A407C
:103AF0001A60A54B1A6880235B021340FB60FB68C9
:103B0000A14B1A68A04BA2490A401A607B685B6807
:103B1000002B14D0FEF754FB0300BB6108E0FEF756
:103B20004FFB0200BB69D31A642B01D9032332E394
:103B3000954B1A6880239B021340F0D015E0FEF7E6
:103B40003FFB0300BB6108E0FEF73AFB0200BB69E4
:103B5000D31A642B01D903231DE38B4B1A688023EE
:103B60009B021340F0D100E0C0467B681B68022234
:103B7000134000D18AE07B68DB687B613B6A042BE1
:103B800005D03B6A0C2B3DD1FB69002B3AD17E4B13
:103B90001B680422134004D07B69002B01D1012350
:103BA000F9E2794B5B687B4A134019007B681B691B
:103BB0001A02754B0A435A60734B1B6809229343E0
:103BC0001900714B7A690A431A6000F019FC010070
:103BD0006D4BDB681B090F2213406F4AD35C0A0050
:103BE000DA406E4B1A6013257C190020FEF7B2FAFA
:103BF000030023702A00BB181B78002B46D0BB188B
:103C00001B78C8E27B69002B27D05F4B1B68092219
:103C1000934319005C4B7A690A431A60FEF7D0FAA5
:103C20000300BB6108E0FEF7CBFA0200BB69D31AC0
:103C3000022B01D90323AEE2534B1B68042213402D
:103C4000F1D0514B5B68534A134019007B681B69E4
:103C50001A024D4B0A435A6018E04B4B1A684A4B04
:103C600001218A431A60FEF7ABFA0300BB6108E04A
:103C7000FEF7A6FA0200BB69D31A022B01D903236F
:103C800089E2414B1B6804221340F1D17B681B6819
:103C90001022134000D19FE03B6A002B3FD13A4BEA
:103CA0001A6880239B00134005D07B68DB69002BDA
:103CB00001D101236FE2344B5B68394A134019008C
:103CC0007B685A6A304B0A435A602F4B5B681B0271
:103CD000190A7B681B6A1A062B4B0A435A607B68D9
:103CE0005B6A5B0B0133802212029A40264BDB6831
:103CF0001B090F210B402849CB5CDA40274B1A6087
:103D000013257C190020FEF725FA030023702A00F2
:103D1000BB181B78002B5FD0BB181B783BE27B687D
:103D2000DB69002B3ED0184B1A68174B80214900E5
:103D30000A431A60FEF744FA0300BB6108E0FEF78D
:103D40003FFA0200BB69D31A022B01D9032322E2F6
:103D50000D4B1A6880239B001340F0D00A4B5B6820
:103D60000F4A134019007B685A6A074B0A435A608E
:103D7000054B5B681B02190A7B681B6A1A06024B1B
:103D80000A435A6028E0C04600100240FFFFFEFFD1
:103D9000FFFFFBFFFFE0FFFF90C7000814000020BB
:103DA000FF1FFFFFBD4B1A68BC4BBD490A401A609C
:103DB000FEF706FA0300BB6108E0FEF701FA020015
:103DC000BB69D31A022B01D90323E4E1B34B1A6870
:103DD00080239B001340F0D17B681B6808221340AE
:103DE00036D07B685B69002B19D0AC4B1A6DAB4B9E
:103DF00001210A431A65FEF7E3F90300BB6108E0FD
:103E0000FEF7DEF90200BB69D31A022B01D90323A6
:103E1000C1E1A24B1B6D02221340F1D018E09F4B71
:103E20001A6D9E4B01218A431A65FEF7C9F90300FA
:103E3000BB6108E0FEF7C4F90200BB69D31A022B8C
:103E400001D90323A7E1954B1B6D02221340F1D149
:103E50007B681B680422134000D1AEE027203B188A
:103E600000221A708D4B9A6B80235B05134009D199
:103E70008A4B9A6B894B802149050A439A633B1808
:103E800001221A70874B1A6880235B0013401AD1F5
:103E9000844B1A68834B802149000A431A60FEF75D
:103EA0008FF90300BB6108E0FEF78AF90200BB69E5
:103EB000D31A642B01D903236DE17A4B1A6880234E
:103EC0005B001340F0D07B689A6880235B009A42C5
:103ED00007D1724B1A6D714B802149000A431A6554
:103EE00031E07B689B68002B0CD16C4B1A6D6B4BDF
:103EF0006B490A401A65694B1A6D684B6A490A405A
:103F00001A6520E07B689A68A023DB009A420ED1F4
:103F1000624B1A6D614B8021C9000A431A655F4BE1
:103F20001A6D5E4B802149000A431A650BE05B4B1A
:103F30001A6D5A4B5A490A401A65584B1A6D574B1D
:103F400059490A401A657B689B68002B15D0FEF71B
:103F500037F90300BB6109E0FEF732F90200BB69E3
:103F6000D31A524A934201D9032314E14B4B1A6DE1
:103F700080239B001340EFD014E0FEF721F90300EB
:103F8000BB6109E0FEF71CF90200BB69D31A474A7E
:103F9000934201D90323FEE0404B1A6D80239B001E
:103FA0001340EFD12723FB181B78012B05D13B4B86
:103FB0009A6B3A4B3E490A409A637B681B68202201
:103FC000134049D07B689B69002B26D0334B9A68FD
:103FD000324B01210A439A60304B5A6B2F4B01211F
:103FE0000A435A63334B1A6A324B802189010A43D0
:103FF0001A62FEF7E5F80300BB6108E0FEF7E0F89F
:104000000200BB69D31A022B01D90323C3E0234B5F
:104010009B6802221340F1D01EE0204B9A681F4B90
:1040200001218A439A60234B1A6A224B22490A4093
:104030001A62FEF7C5F80300BB6108E0FEF7C0F89E
:104040000200BB69D31A022B01D90323A3E0134B4F
:104050009B6802221340F1D17B689B6A002B00D140
:1040600098E03B6A0C2B00D177E07B689B6A022BBF
:1040700058D10A4B1A68094B10490A401A60FEF7DA
:104080009FF80300BB611BE0FEF79AF80200BB69D2
:10409000D31A022B14D903237DE0C046001002403E
:1040A000FFFEFFFF00700040FFFBFFFF88130000D2
:1040B000FFFFFFEF00000140FFDFFFFFFFFFFFFEFC
:1040C000374B1A6880239B041340DDD1344BDB68E7
:1040D000344A134019007B68DA6A7B681B6B1A4309
:1040E0007B685B6B1A432E4B0A43DA602C4B1A68D1
:1040F0002B4B802149040A431A60FEF761F8030044
:10410000BB6108E0FEF75CF80200BB69D31A022B22
:1041100001D903233FE0224B1A6880239B041340FC
:10412000F0D037E01E4B1A681D4B1F490A401A6039
:10413000FEF746F80300BB6108E0FEF741F8020015
:10414000BB69D31A022B01D9032324E0144B1A684C
:1041500080239B041340F0D11CE0114BDB68FB6112
:10416000FA6980235B021A407B68DB6A9A420FD1AE
:10417000FA69F0239B031A407B681B6B9A4207D1B4
:10418000FA69C0231B041A407B685B6B9A4201D01A
:10419000012300E000231800BD460AB0B0BDC046B0
:1041A00000100240FFFF02FFFFFFFFFEB0B584B02A
:1041B00000AF786039607B68002B01D101230DE1ED
:1041C000884B1B68012213403A689A4211D9854BEB
:1041D0001B68012293431900824B3A680A431A6014
:1041E000804B1B68012213403A689A4201D0012398
:1041F000F4E07B681B680222134009D07A4BDB682D
:10420000F022934319007B689A68774B0A43DA607F
:104210007B681B680122134000D189E07B685B68E2
:10422000022B07D1704B1A6880239B02134020D1C8
:104230000123D3E07B685B68032B07D16A4B1A68C4
:1042400080239B04134014D10123C7E07B685B6883
:10425000012B06D1644B1B680422134009D10123B2
:10426000BCE0614B1A6880239B00134001D10123FD
:10427000B4E05D4BDB680322934319007B685A6806
:10428000594B0A43DA60FDF79BFF0300FB607B6834
:104290005B68022B11D109E0FDF792FF0200FB6879
:1042A000D31A524A934201D9032397E04E4BDB685D
:1042B0000C221340082BEFD13AE07B685B68032B9C
:1042C00011D109E0FDF77CFF0200FB68D31A474AD1
:1042D000934201D9032381E0434BDB680C22134056
:1042E0000C2BEFD124E07B685B68012B1BD109E02C
:1042F000FDF766FF0200FB68D31A3C4A934201D9DE
:1043000003236BE0384BDB680C221340042BEFD106
:104310000EE0FDF755FF0200FB68D31A334A9342C3
:1043200001D903235AE0304BDB680C221340F0D153
:104330002C4B1B68012213403A689A4211D2294B38
:104340001B68012293431900264B3A680A431A60FE
:10435000244B1B68012213403A689A4201D0012382
:104360003CE07B681B680422134009D01E4BDB68CD
:104370001F4A134019007B68DA681B4B0A43DA6056
:104380007B681B68082213400AD0174BDB68194A68
:10439000134019007B681B69DA00134B0A43DA608B
:1043A00000F02EF80100104BDB681B090F221340B0
:1043B000114AD35C0A00DA40104B1A600B257C19B5
:1043C0000020FDF7C7FE030023702A00BB181B78EE
:1043D000002B02D0BB181B7800E000231800BD465C
:1043E00004B0B0BD0020024000100240881300005D
:1043F000FFF8FFFFFFC7FFFF90C700081400002071
:1044000080B586B000AF3C4BDB68FB60FB680C22DC
:1044100013400C2B13D05CD8042B02D0082B0BD0EC
:1044200057E0354B1B681022134002D0334B3B61E1
:104430005DE0334B3B615AE0324B3B6157E0FB6838
:104440009B0C0F221340304AD35CBB60FB689B0D72
:104450000322134001337B60274BDA6880235B0221
:1044600013400FD0B9680A005201521A93019B1AE7
:10447000DB005B185B0279681800FBF761FE030044
:104480007B6123E01C4B1B68102213400FD0B968DE
:104490000A005201521A93019B1ADB005B181B029F
:1044A00079681800FBF74CFE03007B610EE0B968E9
:1044B0000A005201521A93019B1ADB005B189B02FF
:1044C00079681800FBF73CFE03007B617B693B6168
:1044D0000DE0094B5B685B0B072213403B603B68B8
:1044E0000133802212029A4013003B61C0463B69AF
:1044F0001800BD4606B080BD0010024000093D0016
:104500000024F40000127A00A0C7000880B586B02D
:1045100000AF78607B681B682022134000D1C6E0A2
:1045200017203B1800221A70904B9A6B80235B0572
:10453000134009D18D4B9A6B8C4B802149050A435E
:104540009A633B1801221A70894B1A6880235B001A
:1045500013401AD1864B1A68854B802149000A43C3
:104560001A60FDF72DFE03003B6108E0FDF728FE11
:1045700002003B69D31A642B01D90323F2E07C4B80
:104580001A6880235B001340F0D0784B1A68C02370
:104590009B031340FB607B685A68C0239B03134056
:1045A000FA689A4213D07B685A68C0239B021A406B
:1045B000C0239B029A420AD16C4B1A6880239B024B
:1045C0001A4080239B029A4201D10123CAE0674B23
:1045D0001A6DC0239B021340FB60FB68002B3BD08D
:1045E0007B685A68C0239B021340FA689A4233D012
:1045F0007B681B68202213402ED05C4B1B6D5D4AEC
:104600001340FB60594B1A6D584B802109030A4334
:104610001A65564B1A6D554B57490A401A65534B4C
:10462000FA681A65FA6880235B00134014D0FDF71E
:10463000C7FD03003B6109E0FDF7C2FD02003B69D5
:10464000D31A4E4A934201D903238BE0474B1A6D8C
:1046500080239B001340EFD07B685A68C0239B02E5
:104660001A40C0239B029A420CD1404B1B68444A1B
:10467000134019007B685A68C0239B031A403B4BC8
:104680000A431A60394B196D7B685A68C0239B0234
:104690001A40364B0A431A651723FB181B78012B67
:1046A00005D1324B9A6B314B36490A409A637B688D
:1046B0001B680122134009D02C4BDB6C032293436F
:1046C00019007B689A68294B0A43DA647B681B6887
:1046D0000222134009D0254BDB6C0C2293431900B6
:1046E0007B68DA68214B0A43DA647B681B68042222
:1046F000134009D01D4BDB6C234A134019007B6823
:104700001A691A4B0A43DA647B681B680822134053
:1047100009D0164BDB6C1D4A134019007B685A699F
:10472000124B0A43DA647B681B684022134009D0AD
:104730000E4BDB6C164A134019007B68DA690B4B91
:104740000A43DA647B681B688022134009D0074B58
:10475000DB6C104A134019007B689A69034B0A43CB
:10476000DA6400231800BD4606B080BD0010024088
:1047700000700040FFFFFCFFFFFFF7FF8813000001
:10478000FFFFCFFFFFFFFFEFFFF3FFFFFFCFFFFFB5
:10479000FFFFFFFBFFFFF3FF80B582B000AF786043
:1047A0007B68002B01D101231EE07B6839229B5CD2
:1047B000DBB2002B07D17B683822002199547B683B
:1047C000180004F0AFF97B683922022199547B6804
:1047D0001A687B6804331900100000F033F97B6815
:1047E00039220121995400231800BD4602B080BD32
:1047F00080B584B000AF78607B681B68DA687B683E
:104800001B6801210A43DA607B681B689B680722EA
:104810001340FB60FB68062B07D07B681B681A6897
:104820007B681B6801210A431A6000231800BD46FB
:1048300004B080BD80B582B000AF78607B681B6833
:104840001B6902221340022B24D17B681B68DB68A2
:1048500002221340022B1DD17B681B6803225242A7
:104860001A617B6801221A767B681B689B690322A8
:10487000134004D07B68180000F0CCF807E07B6898
:10488000180000F0BFF87B68180000F0CBF87B68D8
:1048900000221A767B681B681B6904221340042BD4
:1048A00025D17B681B68DB6804221340042B1ED1D2
:1048B0007B681B68052252421A617B6802221A76C5
:1048C0007B681B689A69C0239B00134004D07B68F7
:1048D000180000F09FF807E07B68180000F092F8DD
:1048E0007B68180000F09EF87B6800221A767B68CF
:1048F0001B681B6908221340082B24D17B681B68A6
:10490000DB6808221340082B1DD17B681B68092235
:1049100052421A617B6804221A767B681B68DB6945
:104920000322134004D07B68180000F073F807E0FE
:104930007B68180000F066F87B68180000F072F8D9
:104940007B6800221A767B681B681B691022134063
:10495000102B25D17B681B68DB6810221340102BBD
:104960001ED17B681B68112252421A617B680822A3
:104970001A767B681B68DA69C0239B00134004D059
:104980007B68180000F046F807E07B68180000F02C
:1049900039F87B68180000F045F87B6800221A7629
:1049A0007B681B681B6901221340012B0FD17B68B8
:1049B0001B68DB6801221340012B08D17B681B6850
:1049C000022252421A617B68180001F07BF87B6872
:1049D0001B681B6940221340402B0FD17B681B686A
:1049E000DB6840221340402B08D17B681B684122C2
:1049F00052421A617B68180000F01CF8C046BD46A0
:104A000002B080BD80B582B000AF7860C046BD46C0
:104A100002B080BD80B582B000AF7860C046BD46B0
:104A200002B080BD80B582B000AF7860C046BD46A0
:104A300002B080BD80B582B000AF7860C046BD4690
:104A400002B080BD80B584B000AF786039607B680B
:104A50001B68FB607A688023DB059A4207D07B687D
:104A60001F4A934203D07B681E4A934208D1FB68D9
:104A700070229343FB603B685B68FA681343FB60FA
:104A80007A688023DB059A4207D07B68144A9342F8
:104A900003D07B68134A934208D1FB68124A134043
:104AA000FB603B68DB68FA681343FB60FB688022AD
:104AB00093431A003B681B691343FB607B68FA68E9
:104AC0001A603B689A687B68DA623B681A687B68A0
:104AD0009A627B6801225A61C046BD4604B080BD1F
:104AE0000008014000140140FFFCFFFF80B584B0C6
:104AF00000AF786039607B6838229B5C012B01D164
:104B0000022332E07B683822012199547B683922E4
:104B1000022199547B681B685B68FB607B681B689B
:104B20009B68BB60FB6870229343FB603B681B681B
:104B3000FA681343FB60BB6880229343BB603B6809
:104B40005B68BA681343BB607B681B68FA685A608D
:104B50007B681B68BA689A607B6839220121995486
:104B60007B6838220021995400231800BD4604B008
:104B700080BD000080B582B000AF3B001800082364
:104B80001A00002104F042F8374B384A1A60364BBD
:104B90000022DA63344B8022D2055A60324B002265
:104BA0009A60314B00229A632F4B01221A612E4BDF
:104BB0000022DA602C4B2022002199542A4B21221A
:104BC00000219954284B00229A62274BC222FF32BF
:104BD0005A62254B2C2200219954234B08225A61FA
:104BE000214B00221A63204B00229A611E4B0022A7
:104BF0005A631D4B0022DA611B4B1800FDF708FBBE
:104C0000031E01D003F014FE3B0001221A603B009A
:104C1000802252015A603A00134B11001800FDF730
:104C200005FD031E01D003F003FE3B00104A1A608D
:104C30003A000D4B11001800FDF7F8FC031E01D0DF
:104C400003F0F6FD3B000B4A1A603A00064B1100D8
:104C50001800FDF7EBFC031E01D003F0E9FDC04690
:104C6000BD4602B080BDC046A40200200024014021
:104C7000020000040400000890B589B000AF78601D
:104C80000C243B19180014231A00002103F0BEFF66
:104C90007B681B682A4A93424DD12A4B5A6B294B99
:104CA000802189000A435A63264BDA6A254B012189
:104CB0000A43DA62234BDB6A01221340BB60BB6804
:104CC0003B1907221A603B1903225A603B19002244
:104CD0009A603A19A023DB0511001800FEF7C4F80A
:104CE000194B1A4A1A60184B00225A60164B0022C0
:104CF0009A60154B0022DA60134B80221A61124B26
:104D0000802252005A61104B802212019A610E4B90
:104D10000022DA610C4B00221A620B4B1800FDF7DF
:104D2000E9FE031E01D003F083FD7B68064ADA64C6
:104D3000054B7A689A62C046BD4609B090BDC04630
:104D400000240140001002405C02002008000240E4
:104D500080B582B000AF0C4B1A6B0B4B01210A439C
:104D60001A63094B1B6B012213407B607B68002296
:104D700000210920FDF78CFE0920FDF79EFEC046AC
:104D8000BD4602B080BDC0460010024090B589B05B
:104D900000AF0C243B19180014231A00002103F063
:104DA00035FF354BDA6A344B04210A43DA62324B61
:104DB000DB6A04221340BB60BB682F4BDA6A2E4BC0
:104DC00001210A43DA622C4BDB6A012213407B602B
:104DD0007B68294BDA6A284B02210A43DA62264BA8
:104DE000DB6A022213403B603B68C0231B0223485E
:104DF00001221900FEF7CBF92149A023DB0501228E
:104E00001800FEF7C4F93B19C02212021A603B19C0
:104E100001225A603B1900229A603B190022DA6095
:104E20003B19164A19001000FEF71EF83B19144AE8
:104E30001A603B1901225A603B1900229A603B1903
:104E40000022DA603A19A023DB0511001800FEF7F2
:104E50000BF83B193B221A603B1900225A603B19A0
:104E600001229A603B19074A19001000FDF7FCFF68
:104E7000C046BD4609B090BD001002400008005079
:104E8000F88700000004005080B500AF1B4B1C4A9F
:104E90001A601A4B1B4A5A60184B00229A60174B33
:104EA0000122DA60154B00221A61144B00225A616C
:104EB000124B00229A61114B0022DA610F4B002243
:104EC0001A620E4B1800FEF77FF9031E01D003F0A3
:104ED000AFFC0A4B00211800FEF716FD031E01D09F
:104EE00003F0A6FC054B00211800FEF759FD031E38
:104EF00001D003F09DFCC046BD4680BD00030020EC
:104F000000540040380F300090B589B000AF786091
:104F10000C243B19180014231A00002103F076FE1C
:104F20007B681B68174A934228D1174BDA6A164BE5
:104F300002210A43DA62144BDB6A02221340BB608F
:104F4000BB6821007B18C0221A607B1812225A60AD
:104F50007B1801229A607B180322DA607B180122F9
:104F60001A617B18094A19001000FDF77DFF064BF6
:104F70009A6B054B802189030A439A63C046BD465C
:104F800009B090BD005400400010024000040050E1
:104F900080B586B004AF0200FB1D1A700748642379
:104FA000029301230193FB1D00930123002278212A
:104FB000FEF7A0F9C046BD4602B080BD0003002048
:104FC00080B586B004AF0200FB1D1A700748642349
:104FD000029301230193FB1D0093012340227821BA
:104FE000FEF788F9C046BD4602B080BD0003002030
:104FF00080B582B000AFFB1D00221A7022E0FB1DBD
:105000001B78503BDBB21800FFF7C2FF0020FFF710
:10501000BFFF1020FFF7BCFFBB1D00221A7007E086
:105020000020FFF7CDFFBB1D1A78BB1D01321A709F
:10503000BB1D1B785BB2002BF2DAFB1D1A78FB1D3F
:1050400001321A70FB1D1B78072BD8D900210020D4
:1050500000F065F8C046BD4602B080BD80B582B0A4
:1050600000AF7860AE20FFF793FF0020FFF790FFBE
:105070001020FFF78DFF4020FFF78AFF8120FFF708
:1050800087FFCF20FFF784FFA120FFF781FFC82013
:10509000FFF77EFFA620FFF77BFFA820FFF778FF32
:1050A0003F20FFF775FFD320FFF772FF0020FFF7C7
:1050B0006FFFD520FFF76CFF8020FFF769FFD92035
:1050C000FFF766FFF120FFF763FFDA20FFF760FFCD
:1050D0001220FFF75DFFDB20FFF75AFF4020FFF7AC
:1050E00057FF2020FFF754FF0220FFF751FF8D20CC
:1050F000FFF74EFF1420FFF74BFFA420FFF748FFF8
:10510000A620FFF745FFAF20FFF742FFAF20FFF7D4
:105110003FFFFFF76DFFC046BD4602B080BD80B5C2
:1051200082B000AF0200FB1D1A70BB1D0A1C1A7072
:10513000BB1D1B78503BDBB21800FFF729FFFB1D9E
:105140001B781B09DBB210221343DBB21800FFF7F8
:105150001FFFFB1D1B785BB20E2213405BB20122C6
:1051600013435BB2DBB21800FFF712FFC046BD4627
:1051700002B080BD80B586B000AFF860B96019009C
:10518000FB1D1A70BB1D0A1C1A701623FB18FA1D92
:105190001278203A1A70FB687F2B04D90023FB6039
:1051A000BB680233BB60FB68DBB2BA68D2B21100E5
:1051B0001800FFF7B4FF1723FB1800221A7059E0FC
:1051C000BB68012B2CD1BB1D1B78002B10D01623E4
:1051D000FB181A781723FB1819782B4813005B006B
:1051E0009B185B00C3185B5C01221343DBB213E026
:1051F0001623FB181A781723FB1819782248130076
:105200005B009B185B00C3185B5C5BB2DB435BB26B
:10521000012213435BB2DBB21800FFF7D1FE23E09B
:10522000BB1D1B78002B0DD01623FB181A781723F3
:10523000FB181978144813005B009B185B00C31817
:105240005B5C0EE01623FB181A781723FB181978FD
:105250000D4813005B009B185B00C3185B5CDB43CD
:10526000DBB21800FFF7ACFE17217B181A787B1809
:1052700001321A701723FB181B78052BA0D9C046E2
:10528000C046BD4606B080BDD4BE000890B587B00C
:1052900000AFF860B9601900FB1D1A70BB1D0A1C35
:1052A0001A701623FB18FA1D1278203A1A70FB6840
:1052B0007F2B04D90023FB60BB680233BB60FB6813
:1052C000DBB2BA68D2B211001800FFF728FF17232B
:1052D000FB1800221A7023E0BB1D1B78002B0AD09C
:1052E0001623FB181A781723FB181B782D49120177
:1052F0008A18D35C0BE01623FB181A781723FB18C7
:105300001B78284912018A18D35CDB43DBB21800F2
:10531000FFF756FE17217B181A787B1801321A7096
:1053200017243B191B78072BD6D9FB68DAB2BB6868
:10533000DBB20133DBB219001000FFF7F0FE3B19BE
:1053400008221A7023E0BB1D1B78002B0AD01623FD
:10535000FB181A781723FB181B78124912018A18B8
:10536000D35C0BE01623FB181A781723FB181B7865
:105370000C4912018A18D35CDB43DBB21800FFF73B
:105380001FFE17217B181A787B1801321A70172319
:10539000FB181B780F2BD6D9C046C046BD4607B0B8
:1053A00090BDC04608C1000880B586B000AFF86067
:1053B000B9607A601A00FB1C1A701723FB180022D0
:1053C0001A7035E01723FB181B787A68D3181B78FE
:1053D0000A2B05D10023FB60BB680133BB6021E0D1
:1053E0001723FB181B787A68D3181B780C2B02D173
:1053F000FFF7FEFD16E01723FB181B787A68D31819
:105400001A78FB1C1B78B968F868FFF7B3FEFB68D5
:105410000633FB60FB68782B04D90023FB60BB6874
:105420000133BB6017217B181A787B1801321A7080
:105430001723FB181B787A68D3181B78002BC1D16F
:10544000C046C046BD4606B080BD80B586B000AF40
:10545000F860B9607A601A00FB1C1A701723FB18F9
:1054600000221A7035E01723FB181B787A68D318CE
:105470001B780A2B05D10023FB60BB680133BB609E
:1054800021E01723FB181B787A68D3181B780C2BA4
:1054900002D1FFF7ADFD16E01723FB181B787A68E1
:1054A000D3181A78FB1C1B78B968F868FFF7EEFE72
:1054B000FB680833FB60FB68A02B04D90023FB606A
:1054C000BB680133BB6017217B181A787B18013247
:1054D0001A701723FB181B787A68D3181B78002BD7
:1054E000C1D1C046C046BD4606B080BD80B584B0BF
:1054F00000AFF860B9607A601A00FB1C1A70FA6895
:1055000013005B009B185B001800FB1C1B787A687B
:10551000B968FFF749FFC046BD4604B080BD80B5FD
:1055200084B000AFF860B9607A601A00FB1C1A7092
:10553000FB68D800FB1C1B787A68B968FFF785FF09
:10554000C046BD4604B080BD80B500AFA023DB05DA
:10555000002208211800FDF71AFEA023DB05002217
:1055600010211800FDF713FEA023DB0500222021E7
:105570001800FDF70CFEA023DB05002240211800D7
:10558000FDF705FEA023DB05002280211800FDF7B2
:10559000FEFD80235900A023DB0500221800FDF743
:1055A000F6FD80239900A023DB0500221800FDF7FB
:1055B000EEFD8023D900A023DB0500221800FDF7B3
:1055C000E6FD8023DB01074800221900FDF7DFFD1F
:1055D00080231B02034800221900FDF7D8FDC046B6
:1055E000BD4680BD0008005080B500AF02E04B20F2
:1055F000FCF7F0FD1E4B20211800FDF7ABFD031E4C
:10560000F5D002E04B20FCF7E5FD194B0121180015
:10561000FDF7A0FD031EF5D002E04B20FCF7DAFDFC
:10562000134B08211800FDF795FD031EF5D002E08D
:105630004B20FCF7CFFD0E4B02211800FDF78AFD31
:10564000031EF5D080231902A023DB0501221800D8
:10565000FDF79DFD6420FCF7BDFD80231902A0230A
:10566000DB0500221800FDF792FDC046BD4680BD57
:105670000004005080B500AF02E04B20FCF7AAFD0B
:10568000294B20211800FDF765FD031EF5D002E02F
:105690004B20FCF79FFD244B01211800FDF75AFD1C
:1056A000031EF5D002E04B20FCF794FD1E4B0821B1
:1056B0001800FDF74FFD031EF5D002E04B20FCF76C
:1056C00089FD194B02211800FDF744FD031EF5D09A
:1056D00080231902A023DB0501221800FDF757FDE6
:1056E0006420FCF777FD80231902A023DB0500224C
:1056F0001800FDF74CFD6420FCF76CFD80231902B7
:10570000A023DB0501221800FDF741FD6420FCF712
:1057100061FD80231902A023DB0500221800FDF79C
:1057200036FDC046BD4680BD0004005080B582B045
:1057300000AF7860734B1B780C2B00D9DDE09A002A
:10574000714BD3181B689F46704B1B78202B00D0E1
:10575000BCE06E4B01221A706A4B1B780133DAB23F
:10576000684B1A70B2E07B68002B0ED1674B1B7838
:105770001D2B00D0ACE0654B01221A70614B1B78E9
:105780000133DAB25F4B1A70A2E0604B1B781E2B1C
:1057900000D09DE05D4B01221A705A4B1B780133FB
:1057A000DAB2584B1A7093E0584B1B78202B00D07C
:1057B00090E0564B01221A70524B1B780133DAB23B
:1057C000504B1A7086E0514B1B781F2B00D083E0A2
:1057D0004E4B01221A704B4B1B780133DAB2494B06
:1057E0001A7079E0494B1B78202B00D076E0474BAC
:1057F00001221A70434B1B780133DAB2414B1A7005
:105800006CE0424B1B781F2B00D069E03F4B01221C
:105810001A703C4B1B780133DAB23A4B1A705FE0D6
:105820003A4B1B78202B5DD1384B01221A70354B37
:105830001B780133DAB2334B1A7053E0334B1B78C9
:10584000202B51D1314B01221A702E4B1B78013382
:10585000DAB22C4B1A7047E02C4B1B781F2B45D12A
:105860002A4B01221A70274B1B780133DAB2254BE1
:105870001A703BE0254B1B78202B39D1234B01229A
:105880001A70204B1B780133DAB21E4B1A702FE0CE
:105890001E4B1B781F2B2DD11C4B01221A70194B4C
:1058A0001B780133DAB2174B1A7023E0174B1B78C1
:1058B000202B21D1154B01221A70124B01221A7094
:1058C000134B1B685A1C124B1A6015E0C04614E0BB
:1058D000C04612E0C04610E0C0460EE0C0460CE0F4
:1058E000C0460AE0C04608E0C04606E0C04604E004
:1058F000C04602E0C04600E0C046C0461800BD46B3
:1059000002B080BD08000020F8C600080900002091
:105910000400002080B582B000AF264B1B78182B06
:1059200008D1244B00221A70234B1B780133DAB2C2
:10593000214B1A70204B1B781B2B32D91F4B1B6835
:105940000322134013D11D4B1B6864211800FAF782
:105950007DFC0B1E0BD1194B1B68C822510018008F
:10596000FAF774FC0B1E02D101237B6019E0134B84
:105970001B68032213400AD1104B1B6864211800D6
:10598000FAF764FC0B1E02D100237B6009E00B4B8D
:105990001B680322134002D101237B6001E0002336
:1059A0007B607B681800FFF7C1FEC046BD4602B0B1
:1059B00080BDC046490200200900002004000020EC
:1059C00090B583B002AF324B1B78642B5CD1304B67
:1059D00000221A702F4B1B780133DAB22D4B1A704C
:1059E0002C4B1B780A2B08D12A4B00221A702A4B09
:1059F0001B780133DAB2284B1A70274B1B783C2BEB
:105A000008D1254B00221A70244B1B780133DAB2DF
:105A1000224B1A70214B1B783C2B0AD11F4B0022C2
:105A20001A701F4B1B780133DAB21D4B1A70FFF747
:105A300071FF1B4B1B781A00184B1B781C00164B70
:105A40001B78184918480093230003F061FD174B99
:105A50001A68174B1B781C00164B1B781649174801
:105A60000093230003F054FD154B1B68012B0BD151
:105A70000D4A012300210D20FFF738FD0F4A0123B5
:105A800000210020FFF732FDC046BD4601B090BDA9
:105A90004502002046020020470200204802002064
:105AA00049020020D0BA00080006002004000020AF
:105AB0000800002009000020E0BA00089C03002034
:105AC0000000002080B584B000AF78607B681A6861
:105AD000104B1B689A4219D10F4B1B780133DAB275
